{
  "address": "0xDa2523c0f830d0809E0c2Af02F00FfD3117830e3",
  "abi": [
    {
      "inputs": [
        {
          "internalType": "address",
          "name": "_arbContract",
          "type": "address"
        }
      ],
      "stateMutability": "nonpayable",
      "type": "constructor"
    },
    {
      "inputs": [
        {
          "internalType": "address",
          "name": "owner",
          "type": "address"
        }
      ],
      "name": "OwnableInvalidOwner",
      "type": "error"
    },
    {
      "inputs": [
        {
          "internalType": "address",
          "name": "account",
          "type": "address"
        }
      ],
      "name": "OwnableUnauthorizedAccount",
      "type": "error"
    },
    {
      "anonymous": false,
      "inputs": [
        {
          "indexed": true,
          "internalType": "address",
          "name": "previousOwner",
          "type": "address"
        },
        {
          "indexed": true,
          "internalType": "address",
          "name": "newOwner",
          "type": "address"
        }
      ],
      "name": "OwnershipTransferred",
      "type": "event"
    },
    {
      "anonymous": false,
      "inputs": [
        {
          "indexed": true,
          "internalType": "address",
          "name": "owner",
          "type": "address"
        },
        {
          "indexed": true,
          "internalType": "address",
          "name": "tokenAddress",
          "type": "address"
        },
        {
          "indexed": false,
          "internalType": "string",
          "name": "symbol",
          "type": "string"
        }
      ],
      "name": "TokenCreated",
      "type": "event"
    },
    {
      "inputs": [],
      "name": "arbContract",
      "outputs": [
        {
          "internalType": "address",
          "name": "",
          "type": "address"
        }
      ],
      "stateMutability": "view",
      "type": "function"
    },
    {
      "inputs": [
        {
          "internalType": "string",
          "name": "name",
          "type": "string"
        },
        {
          "internalType": "string",
          "name": "symbol",
          "type": "string"
        },
        {
          "internalType": "uint256",
          "name": "initialSupply",
          "type": "uint256"
        }
      ],
      "name": "createToken",
      "outputs": [
        {
          "internalType": "address",
          "name": "",
          "type": "address"
        }
      ],
      "stateMutability": "nonpayable",
      "type": "function"
    },
    {
      "inputs": [
        {
          "internalType": "uint256",
          "name": "",
          "type": "uint256"
        }
      ],
      "name": "deployedTokens",
      "outputs": [
        {
          "internalType": "address",
          "name": "",
          "type": "address"
        }
      ],
      "stateMutability": "view",
      "type": "function"
    },
    {
      "inputs": [],
      "name": "getDeployedTokensCount",
      "outputs": [
        {
          "internalType": "uint256",
          "name": "",
          "type": "uint256"
        }
      ],
      "stateMutability": "view",
      "type": "function"
    },
    {
      "inputs": [
        {
          "internalType": "address",
          "name": "user",
          "type": "address"
        }
      ],
      "name": "getUserTokens",
      "outputs": [
        {
          "internalType": "address[]",
          "name": "",
          "type": "address[]"
        }
      ],
      "stateMutability": "view",
      "type": "function"
    },
    {
      "inputs": [],
      "name": "owner",
      "outputs": [
        {
          "internalType": "address",
          "name": "",
          "type": "address"
        }
      ],
      "stateMutability": "view",
      "type": "function"
    },
    {
      "inputs": [],
      "name": "renounceOwnership",
      "outputs": [],
      "stateMutability": "nonpayable",
      "type": "function"
    },
    {
      "inputs": [
        {
          "internalType": "address",
          "name": "_arbContract",
          "type": "address"
        }
      ],
      "name": "setArbContract",
      "outputs": [],
      "stateMutability": "nonpayable",
      "type": "function"
    },
    {
      "inputs": [
        {
          "internalType": "address",
          "name": "newOwner",
          "type": "address"
        }
      ],
      "name": "transferOwnership",
      "outputs": [],
      "stateMutability": "nonpayable",
      "type": "function"
    },
    {
      "inputs": [
        {
          "internalType": "address",
          "name": "",
          "type": "address"
        },
        {
          "internalType": "uint256",
          "name": "",
          "type": "uint256"
        }
      ],
      "name": "userTokens",
      "outputs": [
        {
          "internalType": "address",
          "name": "",
          "type": "address"
        }
      ],
      "stateMutability": "view",
      "type": "function"
    }
  ],
  "transactionHash": "0x16c2c8cb98ce9972d0483bf488c4284344c7d458a24024ac30ab39935599b2bb",
  "args": [
    "0x90fdaAeeecc83100c88e34785c5217C8f3E60CBf"
  ],
  "numDeployments": 2,
  "solcInputHash": "bae52569ba91fd7bb7e713a2b917cd94",
  "bytecode": "0x6080346100c657601f611cd838819003918201601f19168301916001600160401b038311848410176100cb578084926020946040528339810103126100c657516001600160a01b0390818116908190036100c65733156100ad5760005460018060a01b0319903382821617600055604051933391167f8be0079c531659141344cd1fd0a4f28419497f9722a3daafe3b4186f6b6457e0600080a36003541617600355611bf690816100e28239f35b604051631e4fbdf760e01b815260006004820152602490fd5b600080fd5b634e487b7160e01b600052604160045260246000fdfe60806040818152600491823610156200001757600080fd5b600092833560e01c91826325f1be1f14620005af57508163519dc8d214620004fb5781635b06053014620002ed578163715018a6146200028f5781638da5cb5b146200026557816392431512146200023a578163dbd2e76014620001ef578163ec81aadb1462000195578163f2fde38b1462000103575063f9f411d8146200009e57600080fd5b34620000ff5780600319360112620000ff57620000ba620005cd565b6001600160a01b039081168352600260205281832080546024359490851015620000fc5750602093620000ed916200067e565b92905490519260031b1c168152f35b80fd5b5080fd5b90503462000191576020366003190112620001915762000122620005cd565b906200012d620006ef565b6001600160a01b039182169283156200017b57505082546001600160a01b0319811683178455167f8be0079c531659141344cd1fd0a4f28419497f9722a3daafe3b4186f6b6457e08380a380f35b51631e4fbdf760e01b8152908101849052602490fd5b8280fd5b90503462000191576020366003190112620001915735600154811015620001915760016020935260018060a01b03907fb10e2d527612073b26eecdfd717e6a320cf44b4afac2b0732d9fcbe2b7fa0cf60154169051908152f35b8334620000fc576020366003190112620000fc576200020d620005cd565b62000217620006ef565b60018060a01b03166bffffffffffffffffffffffff60a01b600354161760035580f35b505034620000ff5781600319360112620000ff5760035490516001600160a01b039091168152602090f35b505034620000ff5781600319360112620000ff57905490516001600160a01b039091168152602090f35b8334620000fc5780600319360112620000fc57620002ac620006ef565b80546001600160a01b03198116825581906001600160a01b03167f8be0079c531659141344cd1fd0a4f28419497f9722a3daafe3b4186f6b6457e08280a380f35b838334620000ff576060366003190112620000ff5767ffffffffffffffff8335818111620004f75762000324903690860162000622565b90602435818111620004f3576200033f903690870162000622565b600354845191936001600160a01b03936114cd8085019386169291841185851017620004e0576200039d6200038f869594936080936200071d883933865260a0602087015260a0860190620006ad565b8481038a86015288620006ad565b9260443560608201520152039085f08015620004d35781169360015490680100000000000000009182811015620004c0576001810180600155811015620004ad577fb10e2d527612073b26eecdfd717e6a320cf44b4afac2b0732d9fcbe2b7fa0cf601866bffffffffffffffffffffffff60a01b8254161790553381526002602052848120908154928310156200049a57602087878188886200044789896001820181556200067e565b819291549060031b9185831b921b19161790557fb51c8cbe199ffe8b0d1d39b62d473569750653cb18b165f77ae423b3900180ad83518681528062000491339489830190620006ad565b0390a351908152f35b634e487b7160e01b815260418852602490fd5b634e487b7160e01b825260328852602482fd5b634e487b7160e01b825260418852602482fd5b50505051903d90823e3d90fd5b634e487b7160e01b895260418a52602489fd5b8480fd5b8380fd5b505034620000ff5760208060031936011262000191576001600160a01b03928362000525620005cd565b1681526002825282812091835190818185549182815201908195855282852090855b81811062000598575050508262000560910383620005e9565b8451948186019282875251809352850193925b828110620005815785850386f35b835187168552938101939281019260010162000573565b82548a168452928401926001928301920162000547565b849034620000ff5781600319360112620000ff576020906001548152f35b600435906001600160a01b0382168203620005e457565b600080fd5b90601f8019910116810190811067ffffffffffffffff8211176200060c57604052565b634e487b7160e01b600052604160045260246000fd5b81601f82011215620005e45780359067ffffffffffffffff82116200060c57604051926200065b601f8401601f191660200185620005e9565b82845260208383010111620005e457816000926020809301838601378301015290565b8054821015620006975760005260206000200190600090565b634e487b7160e01b600052603260045260246000fd5b919082519283825260005b848110620006da575050826000602080949584010152601f8019910116010190565b602081830181015184830182015201620006b8565b6000546001600160a01b031633036200070457565b60405163118cdaa760e01b8152336004820152602490fdfe60c060409080825234620003e957620014cd803803809162000022828562000778565b833981019060a081830312620003e9576200003d816200079c565b60208201519091906001600160401b0390818111620003e9578462000064918401620007b1565b938583015190828211620003e9576200007f918401620007b1565b620000926080606085015194016200079c565b6001600160a01b039094169485156200076057600080546001600160a01b031981168817825587916001600160a01b03909116907f8be0079c531659141344cd1fd0a4f28419497f9722a3daafe3b4186f6b6457e09080a360ff196012816005541617600555600754166007557310ed43c718714eb63d5aa57b78b54704e256024e60018060a01b0319600a541617600a55734752ba5dbc23f44d87826276bf6fd6b1c372ad2460018060a01b0319600b541617600b55805190838211620006335760035490600182811c9216801562000755575b6020831014620006125781601f849311620006e0575b50602090601f8311600114620006555760009262000649575b50508160011b916000199060031b1c1916176003555b8051918211620006335760045490600182811c9216801562000628575b6020831014620006125781601f8493116200059d575b50602090601f8311600114620005125760009262000506575b50508160011b916000199060031b1c1916176004555b60ff60055416604d8111620004f057600a0a90818102918183041490151715620004f057600655600980546001600160a01b0319166001600160a01b03928316179055600a54835163c45a015560e01b8082529092909160209184916004918391165afa918215620004e557600092620004a1575b508351916364e329cb60e11b9283815230600482015260208160448160007355d398326f99059ff775485246999027b31979559687602484015260018060a01b03165af1908115620004965760009162000454575b50608052600b548551928352602090839060049082906001600160a01b03165afa918215620004495760009262000402575b5084519283523060048401526024830152602090829060449082906000906001600160a01b03165af1908115620003f757600091620003b0575b5060a05260007fddf252ad1be2c89b69c2b068fc378daa952ba7f163c4a11628f55a4df523b3ef60206006548484526001825280868520558551908152a351610ca590816200082882396080518181816101b30152610a44015260a0518181816106e30152610b4e0152f35b90506020813d602011620003ee575b81620003ce6020938362000778565b81010312620003e957620003e2906200079c565b3862000344565b600080fd5b3d9150620003bf565b83513d6000823e3d90fd5b91506020823d60201162000440575b81620004206020938362000778565b81010312620003e9576044620004386020936200079c565b92506200030a565b3d915062000411565b85513d6000823e3d90fd5b90506020813d6020116200048d575b81620004726020938362000778565b81010312620003e95762000486906200079c565b38620002d8565b3d915062000463565b86513d6000823e3d90fd5b9091506020813d602011620004dc575b81620004c06020938362000778565b81010312620003e957620004d4906200079c565b903862000283565b3d9150620004b1565b84513d6000823e3d90fd5b634e487b7160e01b600052601160045260246000fd5b015190503880620001f8565b600460009081527f8a35acfbc15ff81a39ae7d344fd709f28e8600b4aa8c65c6b64bfe7fe36bd19b9350601f198516905b8181106200058457509084600195949392106200056a575b505050811b016004556200020e565b015160001960f88460031b161c191690553880806200055b565b9293602060018192878601518155019501930162000543565b60046000529091507f8a35acfbc15ff81a39ae7d344fd709f28e8600b4aa8c65c6b64bfe7fe36bd19b601f840160051c8101916020851062000607575b90601f859493920160051c01905b818110620005f75750620001df565b60008155849350600101620005e8565b9091508190620005da565b634e487b7160e01b600052602260045260246000fd5b91607f1691620001c9565b634e487b7160e01b600052604160045260246000fd5b01519050388062000196565b600360009081527fc2575a0e9e593c00f959f8c92f12db2869c3395a3b0502d05e2516446f71f85b9350601f198516905b818110620006c75750908460019594939210620006ad575b505050811b01600355620001ac565b015160001960f88460031b161c191690553880806200069e565b9293602060018192878601518155019501930162000686565b60036000529091507fc2575a0e9e593c00f959f8c92f12db2869c3395a3b0502d05e2516446f71f85b601f840160051c810191602085106200074a575b90601f859493920160051c01905b8181106200073a57506200017d565b600081558493506001016200072b565b90915081906200071d565b91607f169162000167565b8651631e4fbdf760e01b815260006004820152602490fd5b601f909101601f19168101906001600160401b038211908210176200063357604052565b51906001600160a01b0382168203620003e957565b919080601f84011215620003e95782516001600160401b038111620006335760209060405192620007ec83601f19601f850116018562000778565b818452828287010111620003e95760005b8181106200081357508260009394955001015290565b8581018301518482018401528201620007fd56fe6080604081815260048036101561001557600080fd5b600092833560e01c90816306fdde031461075b57508063095ea7b31461073157806318160ddd1461071257806322fc8fc3146106ce57806323b872dd14610608578063313ce567146105e65780633415650e146105c2578063372c12b1146105845780634132b0631461053f57806345f54da51461051657806370a08231146104de578063715018a614610481578063735de9f7146104585780638d14e127146104025780638da5cb5b146103da57806395d89b41146102b8578063a9059cbb14610287578063c21ebd071461025e578063c54e44eb1461022f578063dd62ed3e146101e6578063f05663a61461019e5763f2fde38b1461011557600080fd5b3461019a57602036600319011261019a5761012e61089b565b90610137610c6c565b6001600160a01b0391821692831561018457505082546001600160a01b0319811683178455167f8be0079c531659141344cd1fd0a4f28419497f9722a3daafe3b4186f6b6457e08380a380f35b51631e4fbdf760e01b8152908101849052602490fd5b8280fd5b5050346101e257816003193601126101e257517f00000000000000000000000000000000000000000000000000000000000000006001600160a01b03168152602090f35b5080fd5b5050346101e257806003193601126101e2578060209261020461089b565b61020c6108b6565b6001600160a01b0391821683526002865283832091168252845220549051908152f35b5050346101e257816003193601126101e257602090517355d398326f99059ff775485246999027b31979558152f35b5050346101e257816003193601126101e257600a5490516001600160a01b039091168152602090f35b5050346101e257806003193601126101e2576020906102b16102a761089b565b60243590336109f1565b5160018152f35b509190346101e257816003193601126101e25780519082845460018160011c90600183169283156103d0575b60209384841081146103bd578388529081156103a1575060011461034c575b505050829003601f01601f191682019267ffffffffffffffff8411838510176103395750829182610335925282610852565b0390f35b634e487b7160e01b815260418552602490fd5b8787529192508591837f8a35acfbc15ff81a39ae7d344fd709f28e8600b4aa8c65c6b64bfe7fe36bd19b5b83851061038d5750505050830101388080610303565b805488860183015293019284908201610377565b60ff1916878501525050151560051b8401019050388080610303565b634e487b7160e01b895260228a52602489fd5b91607f16916102e4565b5050346101e257816003193601126101e257905490516001600160a01b039091168152602090f35b5050346101e257806003193601126101e25761041c61089b565b906024359182151580930361045457610433610c6c565b60018060a01b03168352600860205282209060ff8019835416911617905580f35b8380fd5b5050346101e257816003193601126101e257600b5490516001600160a01b039091168152602090f35b83346104db57806003193601126104db5761049a610c6c565b80546001600160a01b03198116825581906001600160a01b03167f8be0079c531659141344cd1fd0a4f28419497f9722a3daafe3b4186f6b6457e08280a380f35b80fd5b5050346101e25760203660031901126101e25760209181906001600160a01b0361050661089b565b1681526001845220549051908152f35b5050346101e257816003193601126101e25760095490516001600160a01b039091168152602090f35b83346104db5760203660031901126104db5761055961089b565b610561610c6c565b60018060a01b03166bffffffffffffffffffffffff60a01b600954161760095580f35b5050346101e25760203660031901126101e25760209160ff9082906001600160a01b036105af61089b565b1681526008855220541690519015158152f35b5050346101e257816003193601126101e25760209060ff6007541690519015158152f35b5050346101e257816003193601126101e25760209060ff600554169051908152f35b5082346104db5760603660031901126104db5761062361089b565b918361062d6108b6565b9261063c6044358095876109f1565b6001600160a01b038516815260026020908152828220338352905220549082821061067a576020856102b18661067287876108cc565b9033906108ef565b608490602086519162461bcd60e51b8352820152602860248201527f45524332303a207472616e7366657220616d6f756e74206578636565647320616044820152676c6c6f77616e636560c01b6064820152fd5b5050346101e257816003193601126101e257517f00000000000000000000000000000000000000000000000000000000000000006001600160a01b03168152602090f35b5050346101e257816003193601126101e2576020906006549051908152f35b5050346101e257806003193601126101e2576020906102b161075161089b565b60243590336108ef565b849150833461019a578260031936011261019a578260035460018160011c9060018316928315610848575b60209384841081146103bd5783885290811561082c57506001146107d657505050829003601f01601f191682019267ffffffffffffffff8411838510176103395750829182610335925282610852565b600387529192508591837fc2575a0e9e593c00f959f8c92f12db2869c3395a3b0502d05e2516446f71f85b5b8385106108185750505050830101858080610303565b805488860183015293019284908201610802565b60ff1916878501525050151560051b8401019050858080610303565b91607f1691610786565b6020808252825181830181905290939260005b82811061088757505060409293506000838284010152601f8019910116010190565b818101860151848201604001528501610865565b600435906001600160a01b03821682036108b157565b600080fd5b602435906001600160a01b03821682036108b157565b919082039182116108d957565b634e487b7160e01b600052601160045260246000fd5b6001600160a01b039081169182156109a057169182156109505760207f8c5be1e5ebec7d5bd14f71427d1e84f3dd0314c0f7b2291e5b200ac8c7c3b925918360005260028252604060002085600052825280604060002055604051908152a3565b60405162461bcd60e51b815260206004820152602260248201527f45524332303a20617070726f766520746f20746865207a65726f206164647265604482015261737360f01b6064820152608490fd5b60405162461bcd60e51b8152602060048201526024808201527f45524332303a20617070726f76652066726f6d20746865207a65726f206164646044820152637265737360e01b6064820152608490fd5b9192916001600160a01b0391908216908115610c19578216918215610bc85760009482865260209160018352604090828289205410610b755784885260018452818820610a3f8482546108cc565b9055807f00000000000000000000000000000000000000000000000000000000000000001685148015610b4a575b610acc575b5084875260018352808720805490838201809211610ab8577fddf252ad1be2c89b69c2b068fc378daa952ba7f163c4a11628f55a4df523b3ef95969798505551908152a3565b634e487b7160e01b89526011600452602489fd5b8588526008845260ff8289205416159081610b3b575b50610aee575b38610a72565b60ff60075416610ae8575162461bcd60e51b815260048101839052601c60248201527f4163636573732064656e6965643a2063616e27742062757920494e54000000006044820152606490fd5b90506009541685141538610ae2565b50807f0000000000000000000000000000000000000000000000000000000000000000168514610a6d565b815162461bcd60e51b815260048101859052602660248201527f45524332303a207472616e7366657220616d6f756e7420657863656564732062604482015265616c616e636560d01b6064820152608490fd5b60405162461bcd60e51b815260206004820152602360248201527f45524332303a207472616e7366657220746f20746865207a65726f206164647260448201526265737360e81b6064820152608490fd5b60405162461bcd60e51b815260206004820152602560248201527f45524332303a207472616e736665722066726f6d20746865207a65726f206164604482015264647265737360d81b6064820152608490fd5b6000546001600160a01b03163303610c8057565b60405163118cdaa760e01b8152336004820152602490fdfea164736f6c6343000816000aa164736f6c6343000816000a",
  "devdoc": {
    "errors": {
      "OwnableInvalidOwner(address)": [
        {
          "details": "The owner is not a valid owner account. (eg. `address(0)`)"
        }
      ],
      "OwnableUnauthorizedAccount(address)": [
        {
          "details": "The caller account is not authorized to perform an operation."
        }
      ]
    },
    "kind": "dev",
    "methods": {
      "owner()": {
        "details": "Returns the address of the current owner."
      },
      "renounceOwnership()": {
        "details": "Leaves the contract without owner. It will not be possible to call `onlyOwner` functions. Can only be called by the current owner. NOTE: Renouncing ownership will leave the contract without an owner, thereby disabling any functionality that is only available to the owner."
      },
      "transferOwnership(address)": {
        "details": "Transfers ownership of the contract to a new account (`newOwner`). Can only be called by the current owner."
      }
    },
    "version": 1
  },
  "userdoc": {
    "kind": "user",
    "methods": {},
    "version": 1
  },
  "storageLayout": {
    "storage": [
      {
        "astId": 8,
        "contract": "contracts/TokenFactory.sol:TokenFactory",
        "label": "_owner",
        "offset": 0,
        "slot": "0",
        "type": "t_address"
      },
      {
        "astId": 4199,
        "contract": "contracts/TokenFactory.sol:TokenFactory",
        "label": "deployedTokens",
        "offset": 0,
        "slot": "1",
        "type": "t_array(t_address)dyn_storage"
      },
      {
        "astId": 4204,
        "contract": "contracts/TokenFactory.sol:TokenFactory",
        "label": "userTokens",
        "offset": 0,
        "slot": "2",
        "type": "t_mapping(t_address,t_array(t_address)dyn_storage)"
      },
      {
        "astId": 4206,
        "contract": "contracts/TokenFactory.sol:TokenFactory",
        "label": "arbContract",
        "offset": 0,
        "slot": "3",
        "type": "t_address"
      }
    ],
    "types": {
      "t_address": {
        "encoding": "inplace",
        "label": "address",
        "numberOfBytes": "20"
      },
      "t_array(t_address)dyn_storage": {
        "base": "t_address",
        "encoding": "dynamic_array",
        "label": "address[]",
        "numberOfBytes": "32"
      },
      "t_mapping(t_address,t_array(t_address)dyn_storage)": {
        "encoding": "mapping",
        "key": "t_address",
        "label": "mapping(address => address[])",
        "numberOfBytes": "32",
        "value": "t_array(t_address)dyn_storage"
      }
    }
  }
}