{
  "address": "0xb388dBa8A084De3A35A9dd973E59F703e82B2B9E",
  "abi": [
    {
      "inputs": [],
      "stateMutability": "nonpayable",
      "type": "constructor"
    },
    {
      "inputs": [
        {
          "internalType": "address",
          "name": "tokenIn",
          "type": "address"
        },
        {
          "internalType": "address",
          "name": "tokenOut",
          "type": "address"
        },
        {
          "internalType": "uint256",
          "name": "amountIn",
          "type": "uint256"
        },
        {
          "internalType": "uint256",
          "name": "minProfit",
          "type": "uint256"
        },
        {
          "internalType": "bool",
          "name": "buyOnPancake",
          "type": "bool"
        }
      ],
      "name": "arbitrage",
      "outputs": [],
      "stateMutability": "nonpayable",
      "type": "function"
    },
    {
      "inputs": [],
      "name": "owner",
      "outputs": [
        {
          "internalType": "address",
          "name": "",
          "type": "address"
        }
      ],
      "stateMutability": "view",
      "type": "function"
    },
    {
      "inputs": [],
      "name": "pancakeRouter",
      "outputs": [
        {
          "internalType": "contract IRouter02",
          "name": "",
          "type": "address"
        }
      ],
      "stateMutability": "view",
      "type": "function"
    },
    {
      "inputs": [],
      "name": "uniswapRouter",
      "outputs": [
        {
          "internalType": "contract IRouter02",
          "name": "",
          "type": "address"
        }
      ],
      "stateMutability": "view",
      "type": "function"
    },
    {
      "inputs": [
        {
          "internalType": "address",
          "name": "token",
          "type": "address"
        }
      ],
      "name": "withdraw",
      "outputs": [],
      "stateMutability": "nonpayable",
      "type": "function"
    }
  ],
  "transactionHash": "0x1053eefe9ab0eaf782ff136359324606ecffd15331c50c9f5e2ff2a027e73ee4",
  "args": [],
  "numDeployments": 1,
  "solcInputHash": "1bbd57f1bde880aceb34807ba2e99904",
  "bytecode": "0x60a0806040523461007357734752ba5dbc23f44d87826276bf6fd6b1c372ad2460018060a01b03197310ed43c718714eb63d5aa57b78b54704e256024e81600054161760005560015416176001553360805261082590816100798239608051818181609a01528181610111015261028a0152f35b600080fdfe6040608081526004908136101561001557600080fd5b600091823560e01c90816350ea807b1461023a5783826351cff8d9146100f15750508063735de9f7146100c95780638da5cb5b146100865763c21ebd071461005c57600080fd5b34610082578160031936011261008257905490516001600160a01b039091168152602090f35b5080fd5b5034610082578160031936011261008257517f00000000000000000000000000000000000000000000000000000000000000006001600160a01b03168152602090f35b503461008257816003193601126100825760015490516001600160a01b039091168152602090f35b9150913461008257602092836003193601126102365761010f610629565b7f0000000000000000000000000000000000000000000000000000000000000000906001600160a01b03906101473383851614610644565b16908351926370a0823160e01b845230818501528684602481865afa93841561022c5790879493929187946101f3575b50855163a9059cbb60e01b81526001600160a01b03909216908201908152602081019390935294859283919082906040015b03925af19081156101ea57506101bd578280f35b816101dc92903d106101e3575b6101d481836106ae565b8101906106d0565b5038808280f35b503d6101ca565b513d85823e3d90fd5b8581969295503d8311610225575b61020b81836106ae565b81010312610221579251869390926101a9610177565b8580fd5b503d610201565b85513d88823e3d90fd5b8280fd5b919050346102365760a036600319011261023657610256610629565b916001600160a01b03906024803583811692919083900361062557604435936084359687151588036106215781906102b1827f0000000000000000000000000000000000000000000000000000000000000000163314610644565b16938651976323b872dd60e01b895233858a015230848a01528660448a0152888a81606460209c8d938b5af18015610617576105fa575b50156105df578189541690848a89818c6103378b8d8a80600154169a5b1695519485809481938963095ea7b360e01b9c8d8552840160209093929193604081019460018060a01b031681520152565b03925af180156105d5578d94928a858f8f948f90966103a39d9c9b99976105b8575b508180519a6103678c61067c565b60028c5236908c01376103798a6106e8565b52876103848a61070b565b5251809b819582946338ed173960e01b9b8c85524292309286016107ab565b03925af19586156105ae578d96610591575b5085516000199687820191821161057f57898f969594938f928f946103dd9061040d9261071b565b5194519182526001600160a01b039790991696871691810191825260208201849052929783918291604090910190565b038188865af1801561057557928d9286928b9695610558575b508d8051946104348661067c565b600286523690860137610446846106e8565b528a6104518461070b565b5261046b8d519788968795869485524292309286016107ab565b03925af190811561054e57899161052c575b50805191820191821161051a57906104949161071b565b51936064358101809111610508578411156104da5750835163a9059cbb60e01b8152339181019182526020820193909352919291849184918290889082906040016101a9565b845162461bcd60e51b8152918201869052600990820152681b9bc81c1c9bd99a5d60ba1b6044820152606490fd5b50634e487b7160e01b87526011825286fd5b634e487b7160e01b8952601184528289fd5b61054891503d808b833e61054081836106ae565b81019061072f565b3861047d565b87513d8b823e3d90fd5b61056e90853d87116101e3576101d481836106ae565b5038610426565b8c513d87823e3d90fd5b634e487b7160e01b8f5260118a52888ffd5b6105a79196508d3d8091833e61054081836106ae565b94386103b5565b8b513d8f823e3d90fd5b6105ce908b3d8d116101e3576101d481836106ae565b5038610359565b8c513d85823e3d90fd5b816001541690848a89818c6103378b8d8a808654169a610305565b610610908a3d8c116101e3576101d481836106ae565b50386102e8565b89513d8d823e3d90fd5b8880fd5b8680fd5b600435906001600160a01b038216820361063f57565b600080fd5b1561064b57565b60405162461bcd60e51b81526020600482015260096024820152683737ba1037bbb732b960b91b6044820152606490fd5b6060810190811067ffffffffffffffff82111761069857604052565b634e487b7160e01b600052604160045260246000fd5b90601f8019910116810190811067ffffffffffffffff82111761069857604052565b9081602091031261063f5751801515810361063f5790565b8051156106f55760200190565b634e487b7160e01b600052603260045260246000fd5b8051600110156106f55760400190565b80518210156106f55760209160051b010190565b90602090818382031261063f57825167ffffffffffffffff9384821161063f570181601f8201121561063f578051938411610698578360051b9060405194610779858401876106ae565b8552838086019282010192831161063f578301905b82821061079c575050505090565b8151815290830190830161078e565b91909493929460a083019083526020906000602085015260a060408501528251809152602060c0850193019160005b8281106107fb5750505050906080919460018060a01b031660608201520152565b83516001600160a01b0316855293810193928101926001016107da56fea164736f6c6343000816000a",
  "devdoc": {
    "kind": "dev",
    "methods": {
      "arbitrage(address,address,uint256,uint256,bool)": {
        "params": {
          "amountIn": "投入数量",
          "buyOnPancake": "true = Pancake买/Uniswap卖，false = Uniswap买/Pancake卖",
          "minProfit": "最低利润（单位：tokenIn），不达到则回滚",
          "tokenIn": "输入代币（如 BUSD/USDT）",
          "tokenOut": "套利目标代币"
        }
      }
    },
    "version": 1
  },
  "userdoc": {
    "kind": "user",
    "methods": {},
    "version": 1
  },
  "storageLayout": {
    "storage": [
      {
        "astId": 3705,
        "contract": "contracts/Arbitrage.sol:Arbitrage",
        "label": "pancakeRouter",
        "offset": 0,
        "slot": "0",
        "type": "t_contract(IRouter02)4487"
      },
      {
        "astId": 3711,
        "contract": "contracts/Arbitrage.sol:Arbitrage",
        "label": "uniswapRouter",
        "offset": 0,
        "slot": "1",
        "type": "t_contract(IRouter02)4487"
      }
    ],
    "types": {
      "t_contract(IRouter02)4487": {
        "encoding": "inplace",
        "label": "contract IRouter02",
        "numberOfBytes": "20"
      }
    }
  }
}