{
  "address": "0xF65B6965790767a5884f434DdBeBBB5eae9524Ac",
  "abi": [
    {
      "inputs": [],
      "stateMutability": "nonpayable",
      "type": "constructor"
    },
    {
      "inputs": [
        {
          "internalType": "address",
          "name": "tokenIn",
          "type": "address"
        },
        {
          "internalType": "address",
          "name": "tokenOut",
          "type": "address"
        },
        {
          "internalType": "uint256",
          "name": "amountIn",
          "type": "uint256"
        },
        {
          "internalType": "uint256",
          "name": "minProfit",
          "type": "uint256"
        },
        {
          "internalType": "bool",
          "name": "buyOnPancake",
          "type": "bool"
        }
      ],
      "name": "arbitrage",
      "outputs": [],
      "stateMutability": "nonpayable",
      "type": "function"
    },
    {
      "inputs": [],
      "name": "owner",
      "outputs": [
        {
          "internalType": "address",
          "name": "",
          "type": "address"
        }
      ],
      "stateMutability": "view",
      "type": "function"
    },
    {
      "inputs": [],
      "name": "pancakeRouter",
      "outputs": [
        {
          "internalType": "contract IRouter02",
          "name": "",
          "type": "address"
        }
      ],
      "stateMutability": "view",
      "type": "function"
    },
    {
      "inputs": [],
      "name": "uniswapRouter",
      "outputs": [
        {
          "internalType": "contract IRouter02",
          "name": "",
          "type": "address"
        }
      ],
      "stateMutability": "view",
      "type": "function"
    },
    {
      "inputs": [
        {
          "internalType": "address",
          "name": "token",
          "type": "address"
        }
      ],
      "name": "withdraw",
      "outputs": [],
      "stateMutability": "nonpayable",
      "type": "function"
    }
  ],
  "transactionHash": "0x32a0e436c170027a0d3b0204c7e1a162ad65519e88873191a45ee4e849aa697f",
  "args": [],
  "numDeployments": 1,
  "solcInputHash": "4ae1f4157da21aac89000df6808725bf",
  "bytecode": "0x60a0806040523461006c57734752ba5dbc23f44d87826276bf6fd6b1c372ad2460018060a01b03197310ed43c718714eb63d5aa57b78b54704e256024e81600054161760005560015416176001553360805261089790816100728239608051818181609a01526101110152f35b600080fdfe608060408181526004918236101561001657600080fd5b600092833560e01c91826350ea807b146102685750816351cff8d9146100f157508063735de9f7146100c95780638da5cb5b146100865763c21ebd071461005c57600080fd5b34610082578160031936011261008257905490516001600160a01b039091168152602090f35b5080fd5b5034610082578160031936011261008257517f00000000000000000000000000000000000000000000000000000000000000006001600160a01b03168152602090f35b503461008257816003193601126100825760015490516001600160a01b039091168152602090f35b83833461008257602090816003193601126102645761010e6106d3565b937f00000000000000000000000000000000000000000000000000000000000000006001600160a01b03808216330361023557859695949516908351926370a0823160e01b845230818501528684602481865afa93841561022b5790879493929187946101f2575b50855163a9059cbb60e01b81526001600160a01b03909216908201908152602081019390935294859283919082906040015b03925af19081156101e957506101bc578280f35b816101db92903d106101e2575b6101d38183610720565b810190610742565b5081808280f35b503d6101c9565b513d85823e3d90fd5b8581969295503d8311610224575b61020a8183610720565b81010312610220579251869390926101a8610176565b8580fd5b503d610200565b85513d88823e3d90fd5b835162461bcd60e51b815280840186905260096024820152683737ba1037bbb732b960b91b6044820152606490fd5b8280fd5b929150346106cf5760a03660031901126106cf576102846106d3565b6001600160a01b03602480358281169492908590036106cb57604435946084359485151586036106c75763372c12b160e01b895233858a015260209889818681865afa90811561066c578b916106aa575b50156106765787516323b872dd60e01b81523386820152308582015260448101889052908316959089816064818e8b5af1801561066c5761064f575b5015610634578189541690848a89818c6103608b8d8a80600154169a5b1695519485809481938963095ea7b360e01b9c8d8552840160209093929193604081019460018060a01b031681520152565b03925af1801561062a578d94928a858f8f948f90966103cc9d9c9b999761060d575b508180519a6103908c6106ee565b60028c5236908c01376103a28a61075a565b52876103ad8a61077d565b5251809b819582946338ed173960e01b9b8c855242923092860161081d565b03925af1958615610603578d966105e6575b508551600019968782019182116105d457898f969594938f928f94610406906104369261078d565b5194519182526001600160a01b039790991696871691810191825260208201849052929783918291604090910190565b038188865af180156105ca57928d9286928b96956105ad575b508d80519461045d866106ee565b60028652369086013761046f8461075a565b528a61047a8461077d565b526104948d5197889687958694855242923092860161081d565b03925af19081156105a3578991610581575b50805191820191821161056f57906104bd9161078d565b5193606435810180911161055d5784111561052f5750835163a9059cbb60e01b81523391810191825260208201939093529192918491849182908890829060400103925af19081156101e95750610512578280f35b8161052892903d106101e2576101d38183610720565b5038808280f35b845162461bcd60e51b8152918201869052600990820152681b9bc81c1c9bd99a5d60ba1b6044820152606490fd5b50634e487b7160e01b87526011825286fd5b634e487b7160e01b8952601184528289fd5b61059d91503d808b833e6105958183610720565b8101906107a1565b386104a6565b87513d8b823e3d90fd5b6105c390853d87116101e2576101d38183610720565b503861044f565b8c513d87823e3d90fd5b634e487b7160e01b8f5260118a52888ffd5b6105fc9196508d3d8091833e6105958183610720565b94386103de565b8b513d8f823e3d90fd5b610623908b3d8d116101e2576101d38183610720565b5038610382565b8c513d85823e3d90fd5b816001541690848a89818c6103608b8d8a808654169a61032e565b610665908a3d8c116101e2576101d38183610720565b5038610311565b89513d8d823e3d90fd5b875162461bcd60e51b81528086018a9052600f818601526e1b9bdd081dda1a5d195b1a5cdd1959608a1b6044820152606490fd5b6106c191508a3d8c116101e2576101d38183610720565b386102d5565b8980fd5b8780fd5b8380fd5b600435906001600160a01b03821682036106e957565b600080fd5b6060810190811067ffffffffffffffff82111761070a57604052565b634e487b7160e01b600052604160045260246000fd5b90601f8019910116810190811067ffffffffffffffff82111761070a57604052565b908160209103126106e9575180151581036106e95790565b8051156107675760200190565b634e487b7160e01b600052603260045260246000fd5b8051600110156107675760400190565b80518210156107675760209160051b010190565b9060209081838203126106e957825167ffffffffffffffff938482116106e9570181601f820112156106e957805193841161070a578360051b90604051946107eb85840187610720565b855283808601928201019283116106e9578301905b82821061080e575050505090565b81518152908301908301610800565b91909493929460a083019083526020906000602085015260a060408501528251809152602060c0850193019160005b82811061086d5750505050906080919460018060a01b031660608201520152565b83516001600160a01b03168552938101939281019260010161084c56fea164736f6c6343000816000a",
  "devdoc": {
    "kind": "dev",
    "methods": {
      "arbitrage(address,address,uint256,uint256,bool)": {
        "params": {
          "amountIn": "投入数量",
          "buyOnPancake": "true = Pancake买/Uniswap卖，false = Uniswap买/Pancake卖",
          "minProfit": "最低利润（单位：tokenIn），不达到则回滚",
          "tokenIn": "输入代币（如 BUSD/USDT）",
          "tokenOut": "套利目标代币"
        }
      }
    },
    "version": 1
  },
  "userdoc": {
    "kind": "user",
    "methods": {},
    "version": 1
  },
  "storageLayout": {
    "storage": [
      {
        "astId": 3749,
        "contract": "contracts/Arbitrage.sol:Arbitrage",
        "label": "pancakeRouter",
        "offset": 0,
        "slot": "0",
        "type": "t_contract(IRouter02)4719"
      },
      {
        "astId": 3755,
        "contract": "contracts/Arbitrage.sol:Arbitrage",
        "label": "uniswapRouter",
        "offset": 0,
        "slot": "1",
        "type": "t_contract(IRouter02)4719"
      }
    ],
    "types": {
      "t_contract(IRouter02)4719": {
        "encoding": "inplace",
        "label": "contract IRouter02",
        "numberOfBytes": "20"
      }
    }
  }
}