{
  "address": "0xFa1473F3da7944E47fdBcA4A993FF69DfB9281ed",
  "abi": [
    {
      "anonymous": false,
      "inputs": [
        {
          "indexed": true,
          "internalType": "address",
          "name": "owner",
          "type": "address"
        },
        {
          "indexed": true,
          "internalType": "address",
          "name": "tokenAddress",
          "type": "address"
        },
        {
          "indexed": false,
          "internalType": "string",
          "name": "symbol",
          "type": "string"
        }
      ],
      "name": "TokenCreated",
      "type": "event"
    },
    {
      "inputs": [],
      "name": "arbContract",
      "outputs": [
        {
          "internalType": "address",
          "name": "",
          "type": "address"
        }
      ],
      "stateMutability": "view",
      "type": "function"
    },
    {
      "inputs": [
        {
          "internalType": "string",
          "name": "name",
          "type": "string"
        },
        {
          "internalType": "string",
          "name": "symbol",
          "type": "string"
        },
        {
          "internalType": "uint256",
          "name": "initialSupply",
          "type": "uint256"
        }
      ],
      "name": "createToken",
      "outputs": [
        {
          "internalType": "address",
          "name": "",
          "type": "address"
        }
      ],
      "stateMutability": "nonpayable",
      "type": "function"
    },
    {
      "inputs": [
        {
          "internalType": "uint256",
          "name": "",
          "type": "uint256"
        }
      ],
      "name": "deployedTokens",
      "outputs": [
        {
          "internalType": "address",
          "name": "",
          "type": "address"
        }
      ],
      "stateMutability": "view",
      "type": "function"
    },
    {
      "inputs": [],
      "name": "getDeployedTokensCount",
      "outputs": [
        {
          "internalType": "uint256",
          "name": "",
          "type": "uint256"
        }
      ],
      "stateMutability": "view",
      "type": "function"
    },
    {
      "inputs": [
        {
          "internalType": "address",
          "name": "user",
          "type": "address"
        }
      ],
      "name": "getUserTokens",
      "outputs": [
        {
          "internalType": "address[]",
          "name": "",
          "type": "address[]"
        }
      ],
      "stateMutability": "view",
      "type": "function"
    },
    {
      "inputs": [
        {
          "internalType": "address",
          "name": "_arbContract",
          "type": "address"
        }
      ],
      "name": "setArbContract",
      "outputs": [],
      "stateMutability": "nonpayable",
      "type": "function"
    },
    {
      "inputs": [
        {
          "internalType": "address",
          "name": "",
          "type": "address"
        },
        {
          "internalType": "uint256",
          "name": "",
          "type": "uint256"
        }
      ],
      "name": "userTokens",
      "outputs": [
        {
          "internalType": "address",
          "name": "",
          "type": "address"
        }
      ],
      "stateMutability": "view",
      "type": "function"
    }
  ],
  "transactionHash": "0x76be33cdf2d4ca61f9e1e989d867db26ca4b50f2897841863b21813e971029f0",
  "args": [],
  "numDeployments": 1,
  "solcInputHash": "4ae1f4157da21aac89000df6808725bf",
  "bytecode": "0x6080806040523461001657611aa7908161001c8239f35b600080fdfe60806040818152600491823610156200001757600080fd5b600092833560e01c91826325f1be1f146200051b57508163519dc8d214620004625781635b06053014620001cb5781639243151214620001a0578163dbd2e760146200015e578163ec81aadb14620000df575063f9f411d8146200007a57600080fd5b34620000db5780600319360112620000db576200009662000537565b6001600160a01b039081168352600160205281832080546024359490851015620000d85750602093620000c991620005fd565b92905490519260031b1c168152f35b80fd5b5080fd5b828434620000d8576020366003190112620000d8578235908054821015620000d857506000548110156200014957600080527f290decd9548b62a8d60345a988386fc84ba6bc95484008f6362f93160ef3e563015490516001600160a01b03909116815260209150f35b603283634e487b7160e01b6000525260246000fd5b8334620000d8576020366003190112620000d8576001600160a01b036200018462000537565b166bffffffffffffffffffffffff60a01b600254161760025580f35b505034620000db5781600319360112620000db5760025490516001600160a01b039091168152602090f35b919050346200045e5760603660031901126200045e5767ffffffffffffffff928235848111620000db57620002049036908501620005a1565b9260249384358681116200040057620002219036908401620005a1565b9584519161142c80840192848410908411176200044c576200025f8493926200026d926200066f86393384526080602085015260808401906200062c565b82810388840152896200062c565b906060604435910152039083f0938415620003f65782546001600160a01b0395861695906801000000000000000090818110156200042857600181018087558110156200043a577f290decd9548b62a8d60345a988386fc84ba6bc95484008f6362f93160ef3e5630180546001600160a01b0319168817905533855260016020528585208054918210156200042857906200030e91600182018155620005fd565b81549060031b908389831b921b191617905580600254168062000372575b60208787818b7fb51c8cbe199ffe8b0d1d39b62d473569750653cb18b165f77ae423b3900180ad835186815280620003693394898301906200062c565b0390a351908152f35b863b156200042457855190634132b06360e01b82528482015284818481838b5af180156200041a5762000404575b506002541691823b1562000400578391869183875195869485936213049560e71b85528401525af18015620003f657620003de575b8080806200032c565b620003ea829162000553565b620000d85780620003d5565b83513d84823e3d90fd5b8380fd5b620004129094919462000553565b9238620003a0565b86513d87823e3d90fd5b8480fd5b634e487b7160e01b8652604185528386fd5b634e487b7160e01b8652603285528386fd5b634e487b7160e01b8652604185528786fd5b8280fd5b505034620000db5760209182600319360112620000d8576001600160a01b0390816200048d62000537565b1681526001916001855283822094845191828288549182815201908198865283862090865b818110620005055750505083620004cb9103846200057e565b855195828701938388525180945286019693905b838210620004ed5786880387f35b845181168852968201969382019390850190620004df565b82548516845292850192918801918801620004b2565b849034620000db5781600319360112620000db57602091548152f35b600435906001600160a01b03821682036200054e57565b600080fd5b67ffffffffffffffff81116200056857604052565b634e487b7160e01b600052604160045260246000fd5b90601f8019910116810190811067ffffffffffffffff8211176200056857604052565b81601f820112156200054e5780359067ffffffffffffffff8211620005685760405192620005da601f8401601f1916602001856200057e565b828452602083830101116200054e57816000926020809301838601378301015290565b8054821015620006165760005260206000200190600090565b634e487b7160e01b600052603260045260246000fd5b919082519283825260005b84811062000659575050826000602080949584010152601f8019910116010190565b6020818301810151848301820152016200063756fe60c0604090808252346200069c576200142c8038038091620000228285620006a1565b83398101906080818303126200069c576200003d81620006db565b6020828101516001600160401b0393908481116200069c578562000063918301620006f0565b94868201518581116200069c5760609162000080918401620006f0565b9101516001600160a01b039384169485156200068457600080546001600160a01b03198082168917835591979087167f8be0079c531659141344cd1fd0a4f28419497f9722a3daafe3b4186f6b6457e08980a3734752ba5dbc23f44d87826276bf6fd6b1c372ad2460ff1991600592601281855416178455600754166007557310ed43c718714eb63d5aa57b78b54704e256024e81600a541617600a55600b541617600b558751918083116200067057600380549360019a8b86811c9616801562000665575b8987101462000651578190601f9687811162000600575b50899087831160011462000594578c9262000588575b505060001982841b1c1916908b1b1781555b8551918211620005745760049586548b81811c9116801562000569575b89821014620005565785811162000510575b5087948311600114620004a75760ff948a9291846200049b575b5050828b1b92600019911b1c19161784555b5416604d81116200048857600a0a90818102918183041490151715620004755760065582600a5416908651938385838163c45a015560e01b968782525afa9485156200046b57869562000428575b508751906364e329cb60e11b91828152308482015285816044818b867355d398326f99059ff775485246999027b31979559c8d6024850152165af19081156200041e578891620003dd575b506080528481600b541694848b518097819382525afa938415620003d357859392918891829662000384575b5060449394958b519889968795865230908601526024850152165af180156200037a57839062000329575b6000805160206200140c833981519152925060a052600654933384528152838584205584519384523393a351610ca590816200076782396080518181816101b30152610a44015260a0518181816106e30152610b4e0152f35b50908181813d831162000372575b620003438183620006a1565b810103126200036e5790620003686000805160206200140c83398151915292620006db565b620002d0565b8280fd5b503d62000337565b85513d85823e3d90fd5b929483919496508092503d8311620003cb575b620003a38183620006a1565b81010312620003c7579186604492620003be879695620006db565b959493620002a5565b8680fd5b503d62000397565b89513d89823e3d90fd5b90508581813d831162000416575b620003f78183620006a1565b8101031262000412576200040b90620006db565b3862000279565b8780fd5b503d620003eb565b8a513d8a823e3d90fd5b9094508381813d831162000463575b620004438183620006a1565b810103126200045f576200045790620006db565b93386200022e565b8580fd5b503d62000437565b88513d88823e3d90fd5b634e487b7160e01b855260118252602485fd5b634e487b7160e01b865260118352602486fd5b015191503880620001ce565b8a9291601f19831695888c52898c20928c5b8b898210620004f95750508460ff9810620004de575b50505050811b018455620001e0565b01519060f884600019921b161c1916905538808080620004cf565b8284015186558f97909501949283019201620004b9565b878b52888b2086808601871c8201928b87106200054c575b01861c01908c905b82811062000540575050620001b4565b8c8155018c9062000530565b9250819262000528565b634e487b7160e01b8b526022885260248bfd5b90607f1690620001a2565b634e487b7160e01b89526041600452602489fd5b01519050388062000173565b848d528a8d208e94509190601f1984168e5b8d828210620005e05750508411620005c7575b505050811b01815562000185565b015160001983861b60f8161c19169055388080620005b9565b91929395968291958786015181550195019301908f9594939291620005a6565b909150838c52898c2087808501881c8201928c861062000647575b918f918695949301891c01915b828110620006385750506200015d565b8e81558594508f910162000628565b925081926200061b565b634e487b7160e01b8b52602260045260248bfd5b95607f169562000146565b634e487b7160e01b88526041600452602488fd5b8751631e4fbdf760e01b815260006004820152602490fd5b600080fd5b601f909101601f19168101906001600160401b03821190821017620006c557604052565b634e487b7160e01b600052604160045260246000fd5b51906001600160a01b03821682036200069c57565b919080601f840112156200069c5782516001600160401b038111620006c557602090604051926200072b83601f19601f8501160185620006a1565b8184528282870101116200069c5760005b8181106200075257508260009394955001015290565b85810183015184820184015282016200073c56fe6080604081815260048036101561001557600080fd5b600092833560e01c90816306fdde031461075b57508063095ea7b31461073157806318160ddd1461071257806322fc8fc3146106ce57806323b872dd14610608578063313ce567146105e65780633415650e146105c2578063372c12b1146105845780634132b0631461053f57806345f54da51461051657806370a08231146104de578063715018a614610481578063735de9f7146104585780638d14e127146104025780638da5cb5b146103da57806395d89b41146102b8578063a9059cbb14610287578063c21ebd071461025e578063c54e44eb1461022f578063dd62ed3e146101e6578063f05663a61461019e5763f2fde38b1461011557600080fd5b3461019a57602036600319011261019a5761012e61089b565b90610137610c6c565b6001600160a01b0391821692831561018457505082546001600160a01b0319811683178455167f8be0079c531659141344cd1fd0a4f28419497f9722a3daafe3b4186f6b6457e08380a380f35b51631e4fbdf760e01b8152908101849052602490fd5b8280fd5b5050346101e257816003193601126101e257517f00000000000000000000000000000000000000000000000000000000000000006001600160a01b03168152602090f35b5080fd5b5050346101e257806003193601126101e2578060209261020461089b565b61020c6108b6565b6001600160a01b0391821683526002865283832091168252845220549051908152f35b5050346101e257816003193601126101e257602090517355d398326f99059ff775485246999027b31979558152f35b5050346101e257816003193601126101e257600a5490516001600160a01b039091168152602090f35b5050346101e257806003193601126101e2576020906102b16102a761089b565b60243590336109f1565b5160018152f35b509190346101e257816003193601126101e25780519082845460018160011c90600183169283156103d0575b60209384841081146103bd578388529081156103a1575060011461034c575b505050829003601f01601f191682019267ffffffffffffffff8411838510176103395750829182610335925282610852565b0390f35b634e487b7160e01b815260418552602490fd5b8787529192508591837f8a35acfbc15ff81a39ae7d344fd709f28e8600b4aa8c65c6b64bfe7fe36bd19b5b83851061038d5750505050830101388080610303565b805488860183015293019284908201610377565b60ff1916878501525050151560051b8401019050388080610303565b634e487b7160e01b895260228a52602489fd5b91607f16916102e4565b5050346101e257816003193601126101e257905490516001600160a01b039091168152602090f35b5050346101e257806003193601126101e25761041c61089b565b906024359182151580930361045457610433610c6c565b60018060a01b03168352600860205282209060ff8019835416911617905580f35b8380fd5b5050346101e257816003193601126101e257600b5490516001600160a01b039091168152602090f35b83346104db57806003193601126104db5761049a610c6c565b80546001600160a01b03198116825581906001600160a01b03167f8be0079c531659141344cd1fd0a4f28419497f9722a3daafe3b4186f6b6457e08280a380f35b80fd5b5050346101e25760203660031901126101e25760209181906001600160a01b0361050661089b565b1681526001845220549051908152f35b5050346101e257816003193601126101e25760095490516001600160a01b039091168152602090f35b83346104db5760203660031901126104db5761055961089b565b610561610c6c565b60018060a01b03166bffffffffffffffffffffffff60a01b600954161760095580f35b5050346101e25760203660031901126101e25760209160ff9082906001600160a01b036105af61089b565b1681526008855220541690519015158152f35b5050346101e257816003193601126101e25760209060ff6007541690519015158152f35b5050346101e257816003193601126101e25760209060ff600554169051908152f35b5082346104db5760603660031901126104db5761062361089b565b918361062d6108b6565b9261063c6044358095876109f1565b6001600160a01b038516815260026020908152828220338352905220549082821061067a576020856102b18661067287876108cc565b9033906108ef565b608490602086519162461bcd60e51b8352820152602860248201527f45524332303a207472616e7366657220616d6f756e74206578636565647320616044820152676c6c6f77616e636560c01b6064820152fd5b5050346101e257816003193601126101e257517f00000000000000000000000000000000000000000000000000000000000000006001600160a01b03168152602090f35b5050346101e257816003193601126101e2576020906006549051908152f35b5050346101e257806003193601126101e2576020906102b161075161089b565b60243590336108ef565b849150833461019a578260031936011261019a578260035460018160011c9060018316928315610848575b60209384841081146103bd5783885290811561082c57506001146107d657505050829003601f01601f191682019267ffffffffffffffff8411838510176103395750829182610335925282610852565b600387529192508591837fc2575a0e9e593c00f959f8c92f12db2869c3395a3b0502d05e2516446f71f85b5b8385106108185750505050830101858080610303565b805488860183015293019284908201610802565b60ff1916878501525050151560051b8401019050858080610303565b91607f1691610786565b6020808252825181830181905290939260005b82811061088757505060409293506000838284010152601f8019910116010190565b818101860151848201604001528501610865565b600435906001600160a01b03821682036108b157565b600080fd5b602435906001600160a01b03821682036108b157565b919082039182116108d957565b634e487b7160e01b600052601160045260246000fd5b6001600160a01b039081169182156109a057169182156109505760207f8c5be1e5ebec7d5bd14f71427d1e84f3dd0314c0f7b2291e5b200ac8c7c3b925918360005260028252604060002085600052825280604060002055604051908152a3565b60405162461bcd60e51b815260206004820152602260248201527f45524332303a20617070726f766520746f20746865207a65726f206164647265604482015261737360f01b6064820152608490fd5b60405162461bcd60e51b8152602060048201526024808201527f45524332303a20617070726f76652066726f6d20746865207a65726f206164646044820152637265737360e01b6064820152608490fd5b9192916001600160a01b0391908216908115610c19578216918215610bc85760009482865260209160018352604090828289205410610b755784885260018452818820610a3f8482546108cc565b9055807f00000000000000000000000000000000000000000000000000000000000000001685148015610b4a575b610acc575b5084875260018352808720805490838201809211610ab8577fddf252ad1be2c89b69c2b068fc378daa952ba7f163c4a11628f55a4df523b3ef95969798505551908152a3565b634e487b7160e01b89526011600452602489fd5b8588526008845260ff8289205416159081610b3b575b50610aee575b38610a72565b60ff60075416610ae8575162461bcd60e51b815260048101839052601c60248201527f4163636573732064656e6965643a2063616e27742062757920494e54000000006044820152606490fd5b90506009541685141538610ae2565b50807f0000000000000000000000000000000000000000000000000000000000000000168514610a6d565b815162461bcd60e51b815260048101859052602660248201527f45524332303a207472616e7366657220616d6f756e7420657863656564732062604482015265616c616e636560d01b6064820152608490fd5b60405162461bcd60e51b815260206004820152602360248201527f45524332303a207472616e7366657220746f20746865207a65726f206164647260448201526265737360e81b6064820152608490fd5b60405162461bcd60e51b815260206004820152602560248201527f45524332303a207472616e736665722066726f6d20746865207a65726f206164604482015264647265737360d81b6064820152608490fd5b6000546001600160a01b03163303610c8057565b60405163118cdaa760e01b8152336004820152602490fdfea164736f6c6343000816000addf252ad1be2c89b69c2b068fc378daa952ba7f163c4a11628f55a4df523b3efa164736f6c6343000816000a",
  "devdoc": {
    "kind": "dev",
    "methods": {},
    "version": 1
  },
  "userdoc": {
    "kind": "user",
    "methods": {},
    "version": 1
  },
  "storageLayout": {
    "storage": [
      {
        "astId": 4477,
        "contract": "contracts/TokenFactory.sol:TokenFactory",
        "label": "deployedTokens",
        "offset": 0,
        "slot": "0",
        "type": "t_array(t_address)dyn_storage"
      },
      {
        "astId": 4482,
        "contract": "contracts/TokenFactory.sol:TokenFactory",
        "label": "userTokens",
        "offset": 0,
        "slot": "1",
        "type": "t_mapping(t_address,t_array(t_address)dyn_storage)"
      },
      {
        "astId": 4484,
        "contract": "contracts/TokenFactory.sol:TokenFactory",
        "label": "arbContract",
        "offset": 0,
        "slot": "2",
        "type": "t_address"
      }
    ],
    "types": {
      "t_address": {
        "encoding": "inplace",
        "label": "address",
        "numberOfBytes": "20"
      },
      "t_array(t_address)dyn_storage": {
        "base": "t_address",
        "encoding": "dynamic_array",
        "label": "address[]",
        "numberOfBytes": "32"
      },
      "t_mapping(t_address,t_array(t_address)dyn_storage)": {
        "encoding": "mapping",
        "key": "t_address",
        "label": "mapping(address => address[])",
        "numberOfBytes": "32",
        "value": "t_array(t_address)dyn_storage"
      }
    }
  }
}